:020000040800F2
:10000000005000200D0100085501000855010008AE
:1000100055010008550100085501000800000000C6
:100020000000000000000000000000005501000872
:10003000550100080000000055010008EB0400080D
:100040005501000855010008550100085501000838
:100050005501000855010008550100085501000828
:100060005501000855010008550100085501000818
:100070005501000855010008550100085501000808
:1000800055010008550100085501000855010008F8
:1000900055010008550100085501000855010008E8
:1000A00055010008550100085501000855010008D8
:1000B00055010008550100085501000855010008C8
:1000C00055010008550100085501000855010008B8
:1000D00055010008550100085501000855010008A8
:1000E00055010008550100085501000800000000F6
:1000F0000000000000000000000000000000000000
:0C01000000000000000000005FF808F1A3
:10010C0001F0E3F80B480C490C4A002302E0D458E8
:10011C00C4500433C4188C42F9D3094A094C002347
:10012C0001E013600432A242FBD301F0DDF800F0D1
:10013C0019F87047000000200C0000206013000824
:10014C000C00002010000020FEE780B400AF00BFC0
:10015C00BD4680BC704780B400AF00BFBD4680BCBC
:10016C007047000080B588B000AF00F0BFF900F018
:10017C0077F900F0C5F800F005F900F02DF900232F
:10018C00FB614FF4FA73BB600123FB760123BB7652
:10019C0000237B6132237B600023FB740023BB7440
:1001AC000023FB6000F0FAF90246FB69D31ABA6827
:1001BC009A4207D800F0F2F9F8614FF40051264842
:1001CC0000F0A9FB0121254800F076FB0346FB70EB
:1001DC00FA78FB7E9A4202D000F0E0F9786100F0E8
:1001EC00DDF902467B69D31A7A689A420DD2FA7805
:1001FC00BB7E9A4209D0FB78BB76BB7E002B04D128
:10020C004FF40051144800F086FBFB78FB7600F0AD
:10021C0027F80346BB70BA78FB7C9A4202D000F0F8
:10022C00BDF9F86000F0BAF90246FB68D31A7A6897
:10023C009A420DD2BA78BB7C9A4209D0BB78BB7477
:10024C00BB7C002B04D04FF48041034800F063FBCF
:10025C00BB78FB74A6E700BF00100140000801400A
:10026C0080B582B000AF0023FB710022202123480F
:10027C0000F039FB01224021204800F034FB8021A2
:10028C001E4800F019FB0346002B02D13123FB71F1
:10029C0009E04FF48071194800F00EFB0346002B67
:1002AC0001D13223FB7101222021144800F01BFBE9
:1002BC0000224021114800F016FBFB79002B13D1D2
:1002CC0080210E4800F0F8FA0346002B02D13323AC
:1002DC00FB7109E04FF48071084800F0EDFA034619
:1002EC00002B01D13423FB7101224021034800F083
:1002FC00FAFAFB7918460837BD4680BD000C014060
:10030C0080B586B000AF07F1080300221A605A606E
:10031C009A60DA60194B9B69184A43F01003936199
:10032C00164B9B6903F010037B607B684FF4005302
:10033C00BB600123FB6000233B6102237B6107F15F
:10034C00080319460E4800F033F901224FF400510E
:10035C000B4800F0C8FA4FF48043BB6007F1080368
:10036C001946074800F024F900224FF48041044854
:10037C0000F0B9FA00BF1837BD4680BD001002402E
:10038C000010014080B586B000AF07F108030022D1
:10039C001A605A609A60DA600D4B9B690C4A43F004
:1003AC00040393610A4B9B6903F004037B607B6835
:1003BC000123BB600023FB6001233B6107F10803B1
:1003CC001946044800F0F4F800BF1837BD4680BD4C
:1003DC00001002400008014080B586B000AF07F164
:1003EC00080300221A605A609A60DA601A4B9B6903
:1003FC00194A43F008039361174B9B6903F00803F8
:10040C007B607B686023BB600123FB6000233B6146
:10041C0002237B6107F108031946104800F0C8F865
:10042C00012220210D4800F05EFA012240210B48E8
:10043C0000F059FA4FF4C073BB600023FB6001233A
:10044C003B6107F108031946044800F0B1F800BFFE
:10045C001837BD4680BD00BF00100240000C0140A3
:10046C0080B590B000AF07F1180328220021184680
:10047C0000F031FF3B1D00221A605A609A60DA606E
:10048C001A610123BB614FF48033FB6100233B6293
:10049C0002237B634FF48033BB634FF4E013FB63A5
:1004AC0007F11803184600F04FFA0F237B60022364
:1004BC00BB600023FB604FF480633B6100237B61D6
:1004CC003B1D0221184600F0C1FC00BF4037BD4661
:1004DC0080BD80B400AF00BFBD4680BC704780B506
:1004EC0000AF00F049F800BF80BD000080B500AF40
:1004FC00084B1B68074A43F010031360032000F0FD
:10050C00B1FE0F2000F008F8FFF7E3FF00231846B8
:10051C0080BD00BF0020024080B582B000AF786083
:10052C00124B1A68124B1B7819464FF47A73B3FBB3
:10053C00F1F3B2FBF3F3184600F0BBFE0346002BBD
:10054C0001D001230EE07B680F2B0AD800227968BA
:10055C004FF0FF3000F091FE064A7B6813600023D9
:10056C0000E0012318460837BD4680BD0800002076
:10057C00040000200000002080B400AF054B1B7865
:10058C001A46054B1B681344034A136000BFBD4653
:10059C0080BC7047040000200C00002080B400AF29
:1005AC00024B1B681846BD4680BC70470C000020EF
:1005BC0080B48BB000AF7860396000237B6200237D
:1005CC003B6269E101227B6A02FA03F3FB613B683F
:1005DC001B68FA691340BB61BA69FB699A4240F027
:1005EC0058813B685B689A4A93425ED0984A934222
:1005FC0075D8984A934258D0964A93426FD8964AE7
:10060C00934252D0944A934269D8944A93424CD024
:10061C00924A934263D8924A934246D0904A93426C
:10062C005DD8122B2AD8122B59D801A252F823F0DC
:10063C00B706000891060008A3060008E5060008A6
:10064C00EB060008EB060008EB060008EB060008BA
:10065C00EB060008EB060008EB060008EB060008AA
:10066C00EB060008EB060008EB060008EB0600089A
:10067C00EB06000899060008AD060008794A93427B
:10068C0013D02CE03B68DB683B6229E03B68DB68FD
:10069C0004333B6224E03B68DB6808333B621FE0B9
:1006AC003B68DB680C333B621AE03B689B68002BB1
:1006BC0002D104233B6213E03B689B68012B05D1FC
:1006CC0008233B627B68FA691A6109E008233B62E4
:1006DC007B68FA695A6103E000233B6200E000BFCB
:1006EC00BB69FF2B01D87B6801E07B6804337B611D
:1006FC00BB69FF2B02D87B6A9B0002E07B6A083B3C
:10070C009B003B617B691A680F213B6901FA03F37B
:10071C00DB431A40396A3B6901FA03F31A437B69DC
:10072C001A603B685B6803F08053002B00F0B180CB
:10073C004D4B9B694C4A43F0010393614A4B9B69B7
:10074C0003F00103BB60BB68484A7B6A9B08023319
:10075C0052F82330FB607B6A03F003039B000F22EB
:10076C0002FA03F3DB43FA681340FB607B68404AF0
:10077C00934213D07B683F4A93420DD07B683E4A2C
:10078C00934207D07B683D4A934201D1032306E094
:10079C00042304E0022302E0012300E000237A6A30
:1007AC0002F0030292009340FA681343FB602F4956
:1007BC007B6A9B080233FA6841F823203B685B682C
:1007CC0003F48013002B06D02D4B9A682C49BB697F
:1007DC0013438B6006E02A4B9A68BB69DB432849BC
:1007EC0013408B603B685B6803F40013002B06D04E
:1007FC00234BDA682249BB691343CB6006E0204BDC
:10080C00DA68BB69DB431E491340CB603B685B680D
:10081C0003F40033002B06D0194B5A681849BB69F6
:10082C0013434B6006E0164B5A68BB69DB43144913
:10083C0013404B603B685B6803F48033002B21D082
:10084C000F4B1A680E49BB6913430B6021E000BFC4
:10085C0000003210000031100000221000002110A6
:10086C0000001210000011100010024000000140A6
:10087C0000080140000C0140001001400014014030
:10088C00000401400B4B1A68BB69DB430949134058
:10089C000B607B6A01337B623B681A687B6A22FAC5
:1008AC0003F3002B7FF48EAE00BF00BF2C37BD4688
:1008BC0080BC70470004014080B485B000AF786004
:1008CC000B467B807B689A687B881340002B02D098
:1008DC000123FB7301E00023FB73FB7B18461437E9
:1008EC00BD4680BC704780B483B000AF78600B46C7
:1008FC007B8013467B707B78002B03D07A887B68D7
:10090C001A6103E07B881A047B681A6100BF0C37FC
:10091C00BD4680BC704780B485B000AF78600B4694
:10092C007B807B68DB68FB607A88FB6813401A0469
:10093C00FB68D9437B880B401A437B681A6100BF64
:10094C001437BD4680BC704780B586B000AF786068
:10095C007B68002B01D1012372E27B681B6803F0DA
:10096C000103002B00F08780924B5B6803F00C03B3
:10097C00042B0CD08F4B5B6803F00C03082B12D1AB
:10098C008C4B5B6803F48033B3F5803F0BD1894B00
:10099C001B6803F40033002B6CD07B685B68002B66
:1009AC0068D101234CE27B685B68B3F5803F06D1CC
:1009BC00804B1B687F4A43F4803313602EE07B68C6
:1009CC005B68002B0CD17B4B1B687A4A23F4803379
:1009DC001360784B1B68774A23F4802313601DE067
:1009EC007B685B68B3F5A02F0CD1724B1B68714A06
:1009FC0043F4802313606F4B1B686E4A43F48033BF
:100A0C0013600BE06B4B1B686A4A23F48033136052
:100A1C00684B1B68674A23F4802313607B685B6810
:100A2C00002B13D0FFF7BAFD386108E0FFF7B6FDD5
:100A3C0002463B69D31A642B01D9032300E25D4BB8
:100A4C001B6803F40033002BF0D014E0FFF7A6FD75
:100A5C00386108E0FFF7A2FD02463B69D31A642B0C
:100A6C0001D90323ECE1534B1B6803F40033002B37
:100A7C00F0D100E000BF7B681B6803F00203002B81
:100A8C0063D04C4B5B6803F00C03002B0BD0494B31
:100A9C005B6803F00C03082B1CD1464B5B6803F41A
:100AAC008033002B16D1434B1B6803F00203002B41
:100ABC0005D07B681B69012B01D00123C0E13D4BA4
:100ACC001B6823F0F8027B685B69DB003949134330
:100ADC000B603AE07B681B69002B20D0364B01225F
:100AEC001A60FFF75BFD386108E0FFF757FD02461F
:100AFC003B69D31A022B01D90323A1E12D4B1B68AF
:100B0C0003F00203002BF0D02A4B1B6823F0F802F1
:100B1C007B685B69DB00274913430B6015E0264BB0
:100B2C0000221A60FFF73AFD386108E0FFF736FD46
:100B3C0002463B69D31A022B01D9032380E11D4BDA
:100B4C001B6803F00203002BF0D17B681B6803F0D9
:100B5C000803002B3AD07B689B69002B19D0174BEC
:100B6C0001221A60FFF71AFD386108E0FFF716FD45
:100B7C0002463B69D31A022B01D9032360E10D4BCA
:100B8C005B6A03F00203002BF0D0012000F09CFA0A
:100B9C001CE00A4B00221A60FFF700FD38610FE0E1
:100BAC00FFF7FCFC02463B69D31A022B08D903233E
:100BBC0046E100BF00100240000042428004424265
:100BCC00924B5B6A03F00203002BE9D17B681B6834
:100BDC0003F00403002B00F0A6800023FB758B4B65
:100BEC00DB6903F08053002B0DD1884BDB69874AFE
:100BFC0043F08053D361854BDB6903F08053BB60BA
:100C0C00BB680123FB75824B1B6803F48073002BBC
:100C1C0018D17F4B1B687E4A43F480731360FFF737
:100C2C00BDFC386108E0FFF7B9FC02463B69D31AFA
:100C3C00642B01D9032303E1754B1B6803F4807308
:100C4C00002BF0D07B68DB68012B06D16F4B1B6A45
:100C5C006E4A43F0010313622DE07B68DB68002BC6
:100C6C000CD16A4B1B6A694A23F001031362674B70
:100C7C001B6A664A23F0040313621CE07B68DB6882
:100C8C00052B0CD1614B1B6A604A43F004031362C1
:100C9C005E4B1B6A5D4A43F0010313620BE05B4B36
:100CAC001B6A5A4A23F001031362584B1B6A574ABA
:100CBC0023F0040313627B68DB68002B15D0FFF76D
:100CCC006DFC38610AE0FFF769FC02463B69D31AF8
:100CDC0041F28832934201D90323B1E04B4B1B6A9A
:100CEC0003F00203002BEED014E0FFF757FC386141
:100CFC000AE0FFF753FC02463B69D31A41F28832F3
:100D0C00934201D903239BE0404B1B6A03F002037F
:100D1C00002BEED1FB7D012B05D13C4BDB693B4A13
:100D2C0023F08053D3617B68DB69002B00F0878054
:100D3C00364B5B6803F00C03082B61D07B68DB69D6
:100D4C00022B46D1334B00221A60FFF727FC386187
:100D5C0008E0FFF723FC02463B69D31A022B01D9AA
:100D6C0003236DE0294B1B6803F00073002BF0D1BB
:100D7C007B681B6AB3F5803F08D1244B5B6823F476
:100D8C0000327B689B68214913434B601F4B5B68A7
:100D9C0023F474127B68196A7B685B6A0B431B49EA
:100DAC0013434B601B4B01221A60FFF7F7FB3861B2
:100DBC0008E0FFF7F3FB02463B69D31A022B01D97B
:100DCC0003233DE0114B1B6803F00073002BF0D0A4
:100DDC0035E0104B00221A60FFF7E0FB386108E0A9
:100DEC00FFF7DCFB02463B69D31A022B01D9032324
:100DFC0026E0064B1B6803F00073002BF0D11EE0BD
:100E0C007B68DB69012B07D1012319E0001002403C
:100E1C0000700040600042420B4B5B68FB60FB685B
:100E2C0003F480327B681B6A9A4206D1FB6803F498
:100E3C0070127B685B6A9A4201D0012300E00023A8
:100E4C0018461837BD4680BD0010024080B584B0EE
:100E5C0000AF786039607B68002B01D10123D0E0B2
:100E6C006A4B1B6803F007033A689A4210D9674B28
:100E7C001B6823F0070265493B6813430B60634B07
:100E8C001B6803F007033A689A4201D00123B8E0CB
:100E9C007B681B6803F00203002B20D07B681B6867
:100EAC0003F00403002B05D0594B5B68584A43F4FC
:100EBC00E06353607B681B6803F00803002B05D0CC
:100ECC00534B5B68524A43F460535360504B5B681E
:100EDC0023F0F0027B689B684D4913434B607B68A1
:100EEC001B6803F00103002B40D07B685B68012B6F
:100EFC0007D1474B1B6803F40033002B15D101239A
:100F0C007FE07B685B68022B07D1414B1B6803F0C9
:100F1C000073002B09D1012373E03D4B1B6803F0D8
:100F2C000203002B01D101236BE0394B5B6823F0EA
:100F3C0003027B685B68364913434B60FFF72EFB5B
:100F4C00F8600AE0FFF72AFB0246FB68D31A41F26D
:100F5C008832934201D9032353E02D4B5B6803F095
:100F6C000C027B685B689B009A42EBD1274B1B6899
:100F7C0003F007033A689A4210D2244B1B6823F003
:100F8C00070222493B6813430B60204B1B6803F09C
:100F9C0007033A689A4201D0012332E07B681B6850
:100FAC0003F00403002B08D0194B5B6823F4E062B8
:100FBC007B68DB68164913434B607B681B6803F046
:100FCC000803002B09D0124B5B6823F460527B683A
:100FDC001B69DB000E4913434B6000F021F80246FD
:100FEC000B4B5B681B0903F00F030A49CB5C22FA1D
:100FFC0003F3094A1360094B1B681846FFF78CFA78
:10100C00002318461037BD4680BD00BF00200240AB
:10101C0000100240501300080800002000000020BF
:10102C0080B487B000AF0023FB600023BB600023BB
:10103C007B6100237B6000233B611E4B5B68FB6084
:10104C00FB6803F00C03042B02D0082B03D027E021
:10105C00194B3B6127E0FB689B0C03F00F03174A0D
:10106C00D35C7B60FB6803F48033002B10D0114BF6
:10107C005B685B0C03F00103114AD35CBB607B68BB
:10108C000D4A03FB02F2BB68B2FBF3F37B6104E095
:10109C007B680C4A02FB03F37B617B693B6102E0DA
:1010AC00054B3B6100BF3B6918461C37BD4680BCF5
:1010BC00704700BF0010024000127A003C13000879
:1010CC004C13000800093D0080B485B000AF786077
:1010DC000A4B1B680A4AA2FB03235B0A7A6802FBD1
:1010EC0003F3FB6000BFFB685A1EFA60002BF9D1BA
:1010FC0000BF00BF1437BD4680BC704708000020FD
:10110C00D34D621080B485B000AF78607B6803F07B
:10111C000703FB600C4BDB68BB60BA684FF6FF0340
:10112C001340BB60FB681A02BB68134343F0BF63F8
:10113C0043F40033BB60044ABB68D36000BF143770
:10114C00BD4680BC704700BF00ED00E080B400AF2E
:10115C00044BDB681B0A03F007031846BD4680BC32
:10116C00704700BF00ED00E080B483B000AF0346D1
:10117C003960FB7197F90730002B0ADB3B68DAB258
:10118C000C4997F907301201D2B20B4483F80023B3
:10119C000AE03B68DAB20849FB7903F00F03043B21
:1011AC001201D2B20B441A7600BF0C37BD4680BC7C
:1011BC00704700BF00E100E000ED00E080B489B0B2
:1011CC0000AFF860B9607A60FB6803F00703FB615D
:1011DC00FB69C3F10703042B28BF0423BB61FB6924
:1011EC000433062B02D9FB69033B00E000237B612F
:1011FC004FF0FF32BB6902FA03F3DA43BB681A40C3
:10120C007B699A404FF0FF317B6901FA03F3D943B4
:10121C007B680B40134318462437BD4680BC70478F
:10122C0080B582B000AF78607B68013BB3F1807F02
:10123C0001D301230FE00A4A7B68013B53600F2165
:10124C004FF0FF30FFF790FF054B00229A60044BE4
:10125C0007221A60002318460837BD4680BD00BF20
:10126C0010E000E080B582B000AF78607868FFF7DE
:10127C0049FF00BF0837BD4680BD80B586B000AFC2
:10128C000346B9607A60FB7300237B61FFF75EFF56
:10129C0078617A68B9687869FFF790FF024697F928
:1012AC000F3011461846FFF75FFF00BF1837BD46D9
:1012BC0080BD80B582B000AF78607868FFF7B0FF72
:1012CC00034618460837BD4680BD80B400AF00BF4A
:1012DC00BD4680BC704703460244934200D1704720
:1012EC0003F8011BF9E7000070B500260C4D0D4BFF
:1012FC005B1B9C10A64209D10026FEF726FF0A4D67
:10130C000A4B5B1B9C10A64205D170BD55F8043BE3
:10131C0098470136EEE755F8043B98470136F2E75B
:10132C0000000000000000000000000000000000B1
:10133C0002030405060708090A0B0C0D0E0F10100A
:10134C000102000000000000000000000102030484
:04135C00060708096F
:0C136000100000000100000000127A00E4
:040000050800010DE1
:00000001FF
