:020000040800F2
:100000000050002021010008690100086901000872
:10001000690100086901000869010008000000008A
:10002000000000000000000000000000690100085E
:10003000690100080000000069010008EB040008E5
:1000400069010008690100086901000869010008E8
:1000500069010008690100086901000869010008D8
:1000600069010008690100086901000869010008C8
:1000700069010008690100086901000869010008B8
:1000800069010008690100086901000869010008A8
:100090006901000869010008690100086901000898
:1000A0006901000869010008690100086901000888
:1000B0006901000869010008690100086901000878
:1000C0006901000869010008690100086901000868
:1000D0006901000869010008690100086901000858
:1000E00069010008690100086901000800000000BA
:1000F0000000000000000000000000000000000000
:0C01000000000000000000005FF808F1A3
:10010C0028200008000000200C0000200C0000201B
:10011C001000002001F0C8FE0B480C490C4A0023CB
:10012C0002E0D458C4500433C4188C42F9D3094AA1
:10013C00094C002301E013600432A242FBD301F00E
:10014C0033FF00F019F87047000000200C0000206D
:10015C00282000080C00002010000020FEE780B4CE
:10016C0000AF00BFBD4680BC704780B400AF00BF7D
:10017C00BD4680BC7047000080B588B000AF00F071
:10018C00B5F900F06DF900F0BBF800F0FBF800F0E9
:10019C0023F90023FB614FF4FA73BB600123FB7658
:1001AC000123BB7600237B6132237B600023FB742D
:1001BC000023BB740023FB6000F014FA0246FB69B9
:1001CC00D31ABA689A4207D800F00CFAF8614FF4C7
:1001DC000051264800F08FFD0121254800F05CFD00
:1001EC000346FB70FA78FB7E9A4202D000F0FAF9D3
:1001FC00786100F0F7F902467B69D31A7A689A4263
:10020C000DD2FA78BB7E9A4209D0FB78BB76BB7EC6
:10021C00002B04D14FF40051144800F06CFDFB7816
:10022C00FB7600F027F80346BB70BA78FB7C9A4249
:10023C0002D000F0D7F9F86000F0D4F90246FB6860
:10024C00D31A7A689A420DD2BA78BB7C9A4209D0FA
:10025C00BB78BB74BB7C002B04D04FF480410348AB
:10026C0000F049FDBB78FB74A6E700BF001001400D
:10027C000008014080B500AF002220211F4800F08B
:10028C0022FD012240211D4800F01DFD80211B484C
:10029C0000F002FD0346002B01D131232CE04FF47A
:1002AC008071164800F0F8FC0346002B01D1322374
:1002BC0022E001222021114800F005FD00224021FE
:1002CC000E4800F000FD80210C4800F0E5FC0346D0
:1002DC00002B01D133230FE04FF48071074800F05D
:1002EC00DBFC0346002B01D1342305E00122402125
:1002FC00024800F0E8FC0023184680BD000C0140C9
:10030C0080B586B000AF07F1080300221A605A606E
:10031C009A60DA60194B9B69184A43F01003936199
:10032C00164B9B6903F010037B607B684FF4005302
:10033C00BB600123FB6000233B6102237B6107F15F
:10034C00080319460E4800F067FA01224FF40051D9
:10035C000B4800F0B8FC4FF48043BB6007F1080376
:10036C001946074800F058FA00224FF4804104481F
:10037C0000F0A9FC00BF1837BD4680BD001002403C
:10038C000010014080B586B000AF07F108030022D1
:10039C001A605A609A60DA600D4B9B690C4A43F004
:1003AC00040393610A4B9B6903F004037B607B6835
:1003BC000123BB600023FB6001233B6107F10803B1
:1003CC001946044800F028FA00BF1837BD4680BD16
:1003DC00001002400008014080B586B000AF07F164
:1003EC00080300221A605A609A60DA601A4B9B6903
:1003FC00194A43F008039361174B9B6903F00803F8
:10040C007B607B686023BB600123FB6000233B6146
:10041C0002237B6107F108031946104800F0FCF930
:10042C00012220210D4800F04EFC012240210B48F6
:10043C0000F049FC4FF4C073BB600023FB60012348
:10044C003B6107F108031946044800F0E5F900BFC9
:10045C001837BD4680BD00BF00100240000C0140A3
:10046C0080B590B000AF07F1180328220021184680
:10047C0001F092FD3B1D00221A605A609A60DA600E
:10048C001A610123BB614FF48033FB6100233B6293
:10049C0002237B634FF48033BB634FF4E013FB63A5
:1004AC0007F11803184600F023FD0F237B6002238D
:1004BC00BB600023FB604FF480633B6100237B61D6
:1004CC003B1D0221184600F095FF00BF4037BD468A
:1004DC0080BD80B400AF00BFBD4680BC704780B506
:1004EC0000AF00F06DF800BF80BD000080B500AF1C
:1004FC00084B1B68074A43F010031360032001F0FC
:10050C0001FC0F2000F02CF8FFF7E3FF0023184646
:10051C0080BD00BF0020024080B500AF094B4FF0FA
:10052C00FF321A61074B00221A61064B4FF0FF3263
:10053C00DA60044B0022DA6000F00CF80023184655
:10054C0080BD00BF0010024080B400AF00BFBD46AC
:10055C0080BC704780B400AF00BFBD4680BC704704
:10056C0080B582B000AF7860124B1A68124B1B78C2
:10057C0019464FF47A73B3FBF1F3B2FBF3F318465D
:10058C0001F007FC0346002B01D001230EE07B6831
:10059C000F2B0AD8002279684FF0FF3001F0BDFB19
:1005AC00064A7B681360002300E0012318460837D5
:1005BC00BD4680BD08000020040000200000002083
:1005CC0080B400AF054B1B781A46054B1B681344CF
:1005DC00034A136000BFBD4680BC70470400002076
:1005EC000C00002080B400AF024B1B681846BD46BF
:1005FC0080BC70470C00002080B400AF024B1B681D
:10060C001846BD4680BC70470000002080B584B001
:10061C0000AF0346FB710023FB730E4B1B78FA797A
:10062C009A4212D00B4B1B78BB730A4AFB7913709E
:10063C00094B1B681846FFF793FF0346FB73FB7BC4
:10064C00002B02D0034ABB7B1370FB7B1846103780
:10065C00BD4680BD040000200000002080B400AF27
:10066C00024B1B781846BD4680BC70470400002026
:10067C0080B584B000AF7860FFF7B4FFB8607B68DA
:10068C00FB60FB68B3F1FF3F05D00A4B1B781A46A1
:10069C00FB681344FB6000BFFFF7A4FF0246BB6876
:1006AC00D31AFA689A42F7D800BF00BF1037BD467C
:1006BC0080BD00BF0400002080B400AF044B1B6859
:1006CC00034A23F00203136000BFBD4680BC704791
:1006DC0010E000E080B400AF044B1B68034A43F009
:1006EC000203136000BFBD4680BC704710E000E001
:1006FC0080B400AF024B1846BD4680BC704700BFAB
:10070C00000A010180B400AF034B1B681B0C184698
:10071C00BD4680BC704700BF002004E080B400AF31
:10072C00034B1B68C3F30B031846BD4680BC7047D4
:10073C00002004E080B400AF024B1B681846BD4695
:10074C0080BC7047E8F7FF1F80B400AF024B1B68FA
:10075C001846BD4680BC7047ECF7FF1F80B400AF55
:10076C00024B1B681846BD4680BC7047F0F7FF1F54
:10077C0080B400AF044B5B68034A43F00103536041
:10078C0000BFBD4680BC7047002004E080B400AFC1
:10079C00044B5B68034A23F00103536000BFBD4662
:1007AC0080BC7047002004E080B400AF044B5B6851
:1007BC00034A43F00203536000BFBD4680BC704740
:1007CC00002004E080B400AF044B5B68034A23F0C4
:1007DC000203536000BFBD4680BC7047002004E09C
:1007EC0080B400AF044B5B68034A43F004035360CE
:1007FC0000BFBD4680BC7047002004E080B400AF51
:10080C00044B5B68034A23F00403536000BFBD46EE
:10081C0080BC7047002004E080B48BB000AF7860DF
:10082C00396000237B6200233B6269E101227B6A11
:10083C0002FA03F3FB613B681B68FA691340BB6166
:10084C00BA69FB699A4240F058813B685B689A4AE6
:10085C0093425ED0984A934275D8984A934258D0A6
:10086C00964A93426FD8964A934252D0944A9342F6
:10087C0069D8944A93424CD0924A934263D8924A94
:10088C00934246D0904A93425DD8122B2AD8122B11
:10089C0059D801A252F823F01F090008F9080008E2
:1008AC000B0900084D0900085309000853090008FA
:1008BC00530900085309000853090008530900089C
:1008CC00530900085309000853090008530900088C
:1008DC0053090008530900085309000801090008CE
:1008EC0015090008794A934213D02CE03B68DB6869
:1008FC003B6229E03B68DB6804333B6224E03B68E5
:10090C00DB6808333B621FE03B68DB680C333B62FF
:10091C001AE03B689B68002B02D104233B6213E076
:10092C003B689B68012B05D108233B627B68FA6905
:10093C001A6109E008233B627B68FA695A6103E09B
:10094C0000233B6200E000BFBB69FF2B01D87B6832
:10095C0001E07B6804337B61BB69FF2B02D87B6AA7
:10096C009B0002E07B6A083B9B003B617B691A6839
:10097C000F213B6901FA03F3DB431A40396A3B69E7
:10098C0001FA03F31A437B691A603B685B6803F056
:10099C008053002B00F0B1804D4B9B694C4A43F0C7
:1009AC00010393614A4B9B6903F00103BB60BB6875
:1009BC00484A7B6A9B08023352F82330FB607B6AFF
:1009CC0003F003039B000F2202FA03F3DB43FA68E4
:1009DC001340FB607B68404A934213D07B683F4ACC
:1009EC0093420DD07B683E4A934207D07B683D4AC8
:1009FC00934201D1032306E0042304E0022302E026
:100A0C00012300E000237A6A02F003029200934073
:100A1C00FA681343FB602F497B6A9B080233FA6820
:100A2C0041F823203B685B6803F48013002B06D04D
:100A3C002D4B9A682C49BB6913438B6006E02A4BFB
:100A4C009A68BB69DB43284913408B603B685B6841
:100A5C0003F40013002B06D0234BDA682249BB6940
:100A6C001343CB6006E0204BDA68BB69DB431E49BD
:100A7C001340CB603B685B6803F40033002B06D05B
:100A8C00194B5A681849BB6913434B6006E0164B67
:100A9C005A68BB69DB43144913404B603B685B6885
:100AAC0003F48033002B21D00F4B1A680E49BB691D
:100ABC0013430B6021E000BF000032100000311026
:100ACC000000221000002110000012100000111074
:100ADC00001002400000014000080140000C0140E1
:100AEC000010014000140140000401400B4B1A6837
:100AFC00BB69DB43094913400B607B6A01337B62A2
:100B0C003B681A687B6A22FA03F3002B7FF48EAEE3
:100B1C0000BF00BF2C37BD4680BC704700040140AD
:100B2C0080B489B000AF786039600023FB619AE033
:100B3C000122FB6902FA03F33A681340BB61BB69FB
:100B4C00002B00F08D804E4AFB699B08023352F853
:100B5C0023307B61FB6903F003039B000F2202FA35
:100B6C0003F37A6913407B617B68464A934213D046
:100B7C007B68454A93420DD07B68444A934207D028
:100B8C007B68434A934201D1032306E0042304E02B
:100B9C00022302E0012300E00023FA6902F00302C1
:100BAC00920093407A699A4232D13A4B1A68BB69E7
:100BBC00DB43384913400B60364B5A68BB69DB4347
:100BCC00344913404B60334BDA68BB69DB43314922
:100BDC001340CB602F4B9A68BB69DB432D49134004
:100BEC008B60FB6903F003039B000F2202FA03F3F3
:100BFC007B61234AFB699B08023352F823107B6903
:100C0C00DA431F48FB699B080A40023340F8232053
:100C1C00BB69FF2B01D87B6801E07B6804333B6127
:100C2C00BB69FF2B02D8FB699B0002E0FB69083B08
:100C3C009B00FB603B691A680F21FB6801FA03F308
:100C4C00DB431A400421FB6801FA03F31A433B69A6
:100C5C001A607B68DA68BB69DB431A407B68DA6030
:100C6C00FB690133FB613A68FB6922FA03F3002B41
:100C7C007FF45EAF00BF00BF2437BD4680BC704719
:100C8C000000014000080140000C01400010014030
:100C9C00001401400004014080B485B000AF7860BE
:100CAC000B467B807B689A687B881340002B02D0B4
:100CBC000123FB7301E00023FB73FB7B1846143705
:100CCC00BD4680BC704780B483B000AF78600B46E3
:100CDC007B8013467B707B78002B03D07A887B68F3
:100CEC001A6103E07B881A047B681A6100BF0C3719
:100CFC00BD4680BC704780B485B000AF78600B46B1
:100D0C007B807B68DB68FB607A88FB6813401A0485
:100D1C00FB68D9437B880B401A437B681A6100BF80
:100D2C001437BD4680BC704780B485B000AF786086
:100D3C000B467B804FF48033FB607A88FB6813434F
:100D4C00FB60FA687B689A617A887B689A61FA68BA
:100D5C007B689A617B689B69FB607B689B6903F489
:100D6C008033002B01D0002300E0012318461437F8
:100D7C00BD4680BC7047000080B582B000AF034612
:100D8C00FB80084B5A69FB881340002B06D0054AA0
:100D9C00FB885361FB88184600F006F800BF083743
:100DAC00BD4680BD0004014080B483B000AF034653
:100DBC00FB8000BF0C37BD4680BC704780B582B04D
:100DCC0000AFFFF70FFC7860454B1B68444A43F0BB
:100DDC000103136008E0FFF705FC02467B68D31A99
:100DEC00022B01D9032377E03D4B1B6803F0020370
:100DFC00002BF0D03A4B1B6823F0F803384A43F031
:100E0C0080031360FFF7EEFB7860354B00225A60CD
:100E1C000AE0FFF7E7FB02467B68D31A41F28832FF
:100E2C00934201D9032357E02D4B5B6803F00C036D
:100E3C00002BEED12B4B2C4A1A602C4B1B681846FE
:100E4C00FFF78EFB0346002B01D0012344E0FFF794
:100E5C00C9FB7860224B1B68214A23F08073136016
:100E6C0008E0FFF7BFFB02467B68D31A022B01D9BF
:100E7C00032331E01A4B1B6803F00073002BF0D1F5
:100E8C00174B00225A60FFF7ADFB7860144B1B68C0
:100E9C00134A23F41023136008E0FFF7A3FB024668
:100EAC007B68D31A642B01D9032315E00C4B1B6808
:100EBC0003F40033002BF0D1094B1B68084A23F4D0
:100ECC0080231360064B5B6A054A43F080735362C0
:100EDC00034B00229A60002318460837BD4680BD9C
:100EEC00001002400800002000127A0000000020D0
:100EFC0080B586B000AF78607B68002B01D10123F0
:100F0C0072E27B681B6803F00103002B00F0878002
:100F1C00924B5B6803F00C03042B0CD08F4B5B687B
:100F2C0003F00C03082B12D18C4B5B6803F4803359
:100F3C00B3F5803F0BD1894B1B6803F40033002BB6
:100F4C006CD07B685B68002B68D101234CE27B681A
:100F5C005B68B3F5803F06D1804B1B687F4A43F436
:100F6C00803313602EE07B685B68002B0CD17B4BCD
:100F7C001B687A4A23F480331360784B1B68774ADA
:100F8C0023F4802313601DE07B685B68B3F5A02F0E
:100F9C000CD1724B1B68714A43F4802313606F4B66
:100FAC001B686E4A43F4803313600BE06B4B1B6879
:100FBC006A4A23F480331360684B1B68674A23F436
:100FCC00802313607B685B68002B13D0FFF70AFB50
:100FDC00386108E0FFF706FB02463B69D31A642B25
:100FEC0001D9032300E25D4B1B6803F40033002B93
:100FFC00F0D014E0FFF7F6FA386108E0FFF7F2FAE8
:10100C0002463B69D31A642B01D90323ECE1534B01
:10101C001B6803F40033002BF0D100E000BF7B68A9
:10102C001B6803F00203002B63D04C4B5B6803F08E
:10103C000C03002B0BD0494B5B6803F00C03082B03
:10104C001CD1464B5B6803F48033002B16D1434B09
:10105C001B6803F00203002B05D07B681B69012B76
:10106C0001D00123C0E13D4B1B6823F0F8027B68E3
:10107C005B69DB00394913430B603AE07B681B6901
:10108C00002B20D0364B01221A60FFF7ABFA3861E7
:10109C0008E0FFF7A7FA02463B69D31A022B01D9E5
:1010AC000323A1E12D4B1B6803F00203002BF0D0AE
:1010BC002A4B1B6823F0F8027B685B69DB0027492D
:1010CC0013430B6015E0264B00221A60FFF78AFAD7
:1010DC00386108E0FFF786FA02463B69D31A022B07
:1010EC0001D9032380E11D4B1B6803F00203002B85
:1010FC00F0D17B681B6803F00803002B3AD07B68A7
:10110C009B69002B19D0174B01221A60FFF76AFA62
:10111C00386108E0FFF766FA02463B69D31A022BE6
:10112C0001D9032360E10D4B5B6A03F00203002B32
:10113C00F0D0012000F0E4FB1CE00A4B00221A6006
:10114C00FFF750FA38610FE0FFF74CFA02463B69A3
:10115C00D31A022B08D9032346E100BF001002402A
:10116C000000424280044242924B5B6A03F002034D
:10117C00002BE9D17B681B6803F00403002B00F003
:10118C00A6800023FB758B4BDB6903F08053002B8F
:10119C000DD1884BDB69874A43F08053D361854B73
:1011AC00DB6903F08053BB60BB680123FB75824B8A
:1011BC001B6803F48073002B18D17F4B1B687E4A8D
:1011CC0043F480731360FFF70DFA386108E0FFF702
:1011DC0009FA02463B69D31A642B01D9032303E1B4
:1011EC00754B1B6803F48073002BF0D07B68DB68B5
:1011FC00012B06D16F4B1B6A6E4A43F0010313623D
:10120C002DE07B68DB68002B0CD16A4B1B6A694AAA
:10121C0023F001031362674B1B6A664A23F0040335
:10122C0013621CE07B68DB68052B0CD1614B1B6ADD
:10123C00604A43F0040313625E4B1B6A5D4A43F041
:10124C00010313620BE05B4B1B6A5A4A23F0010348
:10125C001362584B1B6A574A23F0040313627B68D2
:10126C00DB68002B15D0FFF7BDF938610AE0FFF7FA
:10127C00B9F902463B69D31A41F28832934201D93B
:10128C000323B1E04B4B1B6A03F00203002BEED09F
:10129C0014E0FFF7A7F938610AE0FFF7A3F902465B
:1012AC003B69D31A41F28832934201D903239BE064
:1012BC00404B1B6A03F00203002BEED1FB7D012B8C
:1012CC0005D13C4BDB693B4A23F08053D3617B68EF
:1012DC00DB69002B00F08780364B5B6803F00C0356
:1012EC00082B61D07B68DB69022B46D1334B002283
:1012FC001A60FFF777F9386108E0FFF773F90246D7
:10130C003B69D31A022B01D903236DE0294B1B68CF
:10131C0003F00073002BF0D17B681B6AB3F5803FA0
:10132C0008D1244B5B6823F400327B689B6821490D
:10133C0013434B601F4B5B6823F474127B68196A70
:10134C007B685B6A0B431B4913434B601B4B0122AD
:10135C001A60FFF747F9386108E0FFF743F90246D6
:10136C003B69D31A022B01D903233DE0114B1B68B7
:10137C0003F00073002BF0D035E0104B00221A6004
:10138C00FFF730F9386108E0FFF72CF902463B69AA
:10139C00D31A022B01D9032326E0064B1B6803F05A
:1013AC000073002BF0D11EE07B68DB69012B07D1A9
:1013BC00012319E00010024000700040600042421E
:1013CC000B4B5B68FB60FB6803F480327B681B6A29
:1013DC009A4206D1FB6803F470127B685B6A9A42EE
:1013EC0001D0012300E0002318461837BD4680BD0C
:1013FC000010024080B584B000AF786039607B6823
:10140C00002B01D10123D0E06A4B1B6803F00703CA
:10141C003A689A4210D9674B1B6823F0070265495A
:10142C003B6813430B60634B1B6803F007033A687C
:10143C009A4201D00123B8E07B681B6803F00203D9
:10144C00002B20D07B681B6803F00403002B05D015
:10145C00594B5B68584A43F4E06353607B681B68E4
:10146C0003F00803002B05D0534B5B68524A43F43E
:10147C0060535360504B5B6823F0F0027B689B68B1
:10148C004D4913434B607B681B6803F00103002B31
:10149C0040D07B685B68012B07D1474B1B6803F47A
:1014AC000033002B15D101237FE07B685B68022B96
:1014BC0007D1414B1B6803F00073002B09D10123AA
:1014CC0073E03D4B1B6803F00203002B01D1012399
:1014DC006BE0394B5B6823F003027B685B68364931
:1014EC0013434B60FFF77EF8F8600AE0FFF77AF8D9
:1014FC000246FB68D31A41F28832934201D9032386
:10150C0053E02D4B5B6803F00C027B685B689B001F
:10151C009A42EBD1274B1B6803F007033A689A42B7
:10152C0010D2244B1B6823F0070222493B6813435B
:10153C000B60204B1B6803F007033A689A4201D0FA
:10154C00012332E07B681B6803F00403002B08D0F6
:10155C00194B5B6823F4E0627B68DB681649134324
:10156C004B607B681B6803F00803002B09D0124BFF
:10157C005B6823F460527B681B69DB000E491343E4
:10158C004B6000F071F802460B4B5B681B0903F0D3
:10159C000F030A49CB5C22FA03F3094A1360094B87
:1015AC001B681846FEF7DCFF002318461037BD46B3
:1015BC0080BD00BF00200240001002401020000837
:1015CC00080000200000002080B58AB000AFF86051
:1015DC00B9607A6007F1180300221A605A609A60A9
:1015EC00DA600223FB6103237B6200233B624FF42E
:1015FC008073BB610E4B9B690D4A43F004039361EE
:10160C000B4B9B6903F004037B617B6907F11803A7
:10161C0019460848FFF700F9054B5B6823F0E062B8
:10162C000349BB6813434B6000BF2837BD4680BDE0
:10163C00001002400008014080B400AF034B0122AF
:10164C001A6000BFBD4680BC704700BF4C004242D0
:10165C0080B400AF034B00221A6000BFBD4680BCB3
:10166C00704700BF4C00424280B487B000AF0023EB
:10167C00FB600023BB6000237B6100237B600023A5
:10168C003B611E4B5B68FB60FB6803F00C03042B97
:10169C0002D0082B03D027E0194B3B6127E0FB68F5
:1016AC009B0C03F00F03174AD35C7B60FB6803F4BD
:1016BC008033002B10D0114B5B685B0C03F00103E3
:1016CC00114AD35CBB607B680D4A03FB02F2BB681A
:1016DC00B2FBF3F37B6104E07B680C4A02FB03F37F
:1016EC007B617B693B6102E0054B3B6100BF3B6961
:1016FC0018461C37BD4680BC704700BF0010024026
:10170C0000127A00FC1F00080C20000800093D00A4
:10171C0080B400AF024B1B681846BD4680BC7047B6
:10172C000800002080B500AFFFF7F2FF0246054B22
:10173C005B681B0A03F007030349CB5C22FA03F333
:10174C00184680BD001002402020000880B500AF74
:10175C00FFF7DEFF0246054B5B68DB0A03F007036D
:10176C000349CB5C22FA03F3184680BD00100240FB
:10177C002020000880B483B000AF78607B680F2213
:10178C001A603C4B1B6803F48023B3F5802F04D103
:10179C007B684FF4A0225A600EE0364B1B6803F4B2
:1017AC008033B3F5803F04D17B684FF480325A60AC
:1017BC0002E07B6800225A602E4B5B6803F4003217
:1017CC007B689A602B4B1B6803F00103012B03D140
:1017DC007B6801221A6102E07B6800221A61254BAA
:1017EC001B68DB0803F01F027B685A61214B1B6AE4
:1017FC0003F00403042B03D17B680522DA600CE0B0
:10180C001C4B1B6A03F00103012B03D17B680122E3
:10181C00DA6002E07B680022DA60164B5B6A03F048
:10182C000103012B03D17B6801229A6102E07B68E2
:10183C0000229A610F4B1B6803F08073B3F1807F19
:10184C0003D17B680222DA6102E07B680122DA6153
:10185C00084B5B6803F480327B681A62054B5B684B
:10186C0003F470127B685A6200BF0C37BD4680BC13
:10187C00704700BF0010024080B483B000AF7860A6
:10188C0039607B680F221A60114B5B6803F003020E
:10189C007B685A600E4B5B6803F0F0027B689A60C1
:1018AC000B4B5B6803F4E0627B68DA60084B5B68A7
:1018BC00DB0803F4E0627B681A61064B1B6803F0DB
:1018CC0007023B681A6000BF0C37BD4680BC7047EE
:1018DC00001002400020024080B500AF064B9B6810
:1018EC0003F08003802B04D100F028F8034B8022F6
:1018FC001A7000BF80BD00BF001002400A100240E9
:10190C0080B485B000AF78600A4B1B680A4AA2FB12
:10191C0003235B0A7A6802FB03F3FB6000BFFB68DE
:10192C005A1EFA60002BF9D100BF00BF1437BD4618
:10193C0080BC704708000020D34D621080B400AF0B
:10194C0000BFBD4680BC704780B485B000AF7860E6
:10195C007B6803F00703FB600C4BDB68BB60BA6869
:10196C004FF6FF031340BB60FB681A02BB681343BE
:10197C0043F0BF6343F40033BB60044ABB68D360DD
:10198C0000BF1437BD4680BC704700BF00ED00E0BF
:10199C0080B400AF044BDB681B0A03F00703184646
:1019AC00BD4680BC704700BF00ED00E080B483B042
:1019BC0000AF0346FB7197F90730002B0BDBFB796B
:1019CC0003F01F02064997F907305B09012000FA62
:1019DC0002F241F8232000BF0C37BD4680BC704793
:1019EC0000E100E080B483B000AF0346FB7197F9CF
:1019FC000730002B12DBFB7903F01F020A4997F921
:101A0C0007305B09012000FA02F2203341F8232051
:101A1C00BFF34F8F00BFBFF36F8F00BF00BF0C37FA
:101A2C00BD4680BC704700BF00E100E080B483B0CD
:101A3C0000AF0346FB7197F90730002B0EDB0A4A07
:101A4C0097F907305B09403352F82320FB7903F0F8
:101A5C001F0322FA03F303F0010300E000231846EE
:101A6C000C37BD4680BC704700E100E080B483B009
:101A7C0000AF0346FB7197F90730002B0CDBFB79A9
:101A8C0003F01F02074997F907305B09012000FAA0
:101A9C0002F2403341F8232000BF0C37BD4680BC16
:101AAC00704700BF00E100E080B483B000AF034694
:101ABC00FB7197F90730002B0CDBFB7903F01F024D
:101ACC00074997F907305B09012000FA02F26033ED
:101ADC0041F8232000BF0C37BD4680BC704700BFC7
:101AEC0000E100E080B483B000AF0346FB7197F9CE
:101AFC000730002B0EDB0A4A97F907305B0980335D
:101B0C0052F82320FB7903F01F0322FA03F303F0AE
:101B1C00010300E0002318460C37BD4680BC70471B
:101B2C0000E100E080B483B000AF03463960FB7184
:101B3C0097F90730002B0ADB3B68DAB20C4997F9AE
:101B4C0007301201D2B20B4483F800230AE03B6841
:101B5C00DAB20849FB7903F00F03043B1201D2B24D
:101B6C000B441A7600BF0C37BD4680BC704700BFD3
:101B7C0000E100E000ED00E080B483B000AF03466C
:101B8C00FB7197F90730002B09DB0C4A97F90730EA
:101B9C00134493F80033DBB21B09DBB209E0084AAB
:101BAC00FB7903F00F03043B13441B7EDBB21B09D0
:101BBC00DBB218460C37BD4680BC704700E100E034
:101BCC0000ED00E080B489B000AFF860B9607A60D5
:101BDC00FB6803F00703FB61FB69C3F10703042BEC
:101BEC0028BF0423BB61FB690433062B02D9FB69B4
:101BFC00033B00E000237B614FF0FF32BB6902FA2C
:101C0C0003F3DA43BB681A407B699A404FF0FF310B
:101C1C007B6901FA03F3D9437B680B4013431846E5
:101C2C002437BD4680BC704780B489B000AFF860E3
:101C3C00B9607A603B60BB6803F00703FB61FB692A
:101C4C00C3F10703042B28BF0423BB61FB690433D6
:101C5C00062B02D9FB69033B00E000237B61FA6889
:101C6C007B69DA404FF0FF31BB6901FA03F3DB43C8
:101C7C001A407B681A604FF0FF327B6902FA03F35B
:101C8C00DA43FB681A403B681A6000BF2437BD4634
:101C9C0080BC704780B400AFBFF34F8F00BF064BC2
:101CAC00DB6803F4E0620449044B1343CB60BFF3DD
:101CBC004F8F00BF00BFFDE700ED00E00400FA0508
:101CCC0080B582B000AF78607B68013BB3F1807F58
:101CDC0001D301230FE00A4A7B68013B53600F21BB
:101CEC004FF0FF30FFF71EFF054B00229A60044BAC
:101CFC0007221A60002318460837BD4680BD00BF76
:101D0C0010E000E080B582B000AF78607868FFF733
:101D1C001BFE00BF0837BD4680BD80B586B000AF46
:101D2C000346B9607A60FB7300237B61FFF730FEDA
:101D3C0078617A68B9687869FFF744FF024697F9C9
:101D4C000F3011461846FFF7EDFE00BF1837BD46A1
:101D5C0080BD80B582B000AF0346FB7197F90730A8
:101D6C001846FFF723FE00BF0837BD4680BD80B57F
:101D7C0082B000AF0346FB7197F907301846FFF7A6
:101D8C0031FE00BF0837BD4680BD80B500AFFFF700
:101D9C0081FF80B582B000AF78607868FFF790FF64
:101DAC00034618460837BD4680BD80B500AFFFF727
:101DBC00EFFD0346184680BD80B584B000AFB96016
:101DCC007A603B600346FB7397F90F301846FFF7B8
:101DDC00D3FE3B687A68B968FFF726FF00BF10375F
:101DEC00BD4680BD80B582B000AF0346FB7197F94C
:101DFC0007301846FFF73AFE00BF0837BD4680BDD6
:101E0C0080B582B000AF0346FB7197F907301846D6
:101E1C00FFF70CFE034618460837BD4680BD80B55B
:101E2C0082B000AF0346FB7197F907301846FFF7F5
:101E3C003BFE00BF0837BD4680BD80B582B000AF09
:101E4C000346FB7197F907301846FFF74BFE034624
:101E5C0018460837BD4680BD80B483B000AF7860AB
:101E6C007B68042B06D1094B1B68084A43F004031A
:101E7C00136005E0054B1B68044A23F00403136050
:101E8C0000BF0C37BD4680BC704700BF10E000E0BF
:101E9C0080B500AF00F002F800BF80BD80B400AF89
:101EAC0000BFBD4680BC704780B400AF00BFBD46CC
:101EBC0080BC704780B485B000AF0023FB6000236A
:101ECC00BB6000237B602F4B5B6803F00C03FB6053
:101EDC00FB68082B11D0FB68082B3AD8FB68002B49
:101EEC0003D0FB68042B04D033E0274B274A1A603D
:101EFC0033E0254B254A1A602FE0224B5B6803F434
:101F0C007013BB601F4B5B6803F480337B60BB6852
:101F1C009B0C0233BB607B68002B06D1BB681C4A50
:101F2C0002FB03F3184A136017E0164B5B6803F4CB
:101F3C000033002B06D0BB68154A02FB03F3124A90
:101F4C0013600AE0BB68114A02FB03F30E4A1360EC
:101F5C0003E00D4B0D4A1A6000BF0A4B5B681B096E
:101F6C0003F00F030B4AD35CFB60074B1A68FB684A
:101F7C0022FA03F3044A136000BF1437BD4680BC39
:101F8C00704700BF001002400800002000127A00C9
:101F9C0000093D001020000803460244934200D182
:101FAC00704703F8011BF9E770B500260C4D0D4B7B
:101FBC005B1B9C10A64209D10026FEF7D0F80A4DF7
:101FCC000A4B5B1B9C10A64205D170BD55F8043B17
:101FDC0098470136EEE755F8043B98470136F2E78F
:101FEC0000000000000000000000000000000000E5
:101FFC0002030405060708090A0B0C0D0E0F10103E
:10200C0001020000000000000000000001020304B7
:0C201C0006070809000000000102030490
:0C202800100000000100000000127A000F
:0400000508000121CD
:00000001FF
